{
  "_format": "hh-sol-artifact-1",
  "contractName": "ZKDocsScheduler",
  "sourceName": "contracts/ZKDocsScheduler.sol",
  "abi": [
    {
      "inputs": [],
      "stateMutability": "nonpayable",
      "type": "constructor"
    },
    {
      "inputs": [
        {
          "internalType": "uint256",
          "name": "_timestampToInvoke",
          "type": "uint256"
        },
        {
          "internalType": "address",
          "name": "_contractAddressToCheck",
          "type": "address"
        },
        {
          "internalType": "address",
          "name": "_accountAddressToCheck",
          "type": "address"
        },
        {
          "internalType": "uint256",
          "name": "_amountToCheck",
          "type": "uint256"
        }
      ],
      "name": "shouldDoDisput",
      "outputs": [
        {
          "internalType": "bool",
          "name": "",
          "type": "bool"
        }
      ],
      "stateMutability": "view",
      "type": "function"
    }
  ],
  "bytecode": "0x608060405234801561001057600080fd5b5061020c806100206000396000f3fe608060405234801561001057600080fd5b506004361061002b5760003560e01c8063ac4bdbf014610030575b600080fd5b61004361003e366004610179565b610057565b604051901515815260200160405180910390f35b6000428510156100c25760405162461bcd60e51b815260206004820152602c60248201527f54696d6520746f20636865636b2076616c696469747920737461747573206e6f60448201526b1d081c185cdcd959081e595d60a21b606482015260840160405180910390fd5b6040516370a0823160e01b81526001600160a01b038481166004830152859184918316906370a082319060240160206040518083038186803b15801561010757600080fd5b505afa15801561011b573d6000803e3d6000fd5b505050506040513d601f19601f8201168201806040525081019061013f91906101bd565b111561014f576000915050610155565b60019150505b949350505050565b80356001600160a01b038116811461017457600080fd5b919050565b6000806000806080858703121561018f57600080fd5b8435935061019f6020860161015d565b92506101ad6040860161015d565b9396929550929360600135925050565b6000602082840312156101cf57600080fd5b505191905056fea2646970667358221220f5fe4d9329516f3d746268d8cdeb905d91f94cf0f5aa53d5a6d7fbec05cafe6064736f6c63430008090033",
  "linkReferences": {},
  "deployedLinkReferences": {}
}